{
  "contractName": "TenderFactory",
  "abi": [
    {
      "inputs": [],
      "name": "manager",
      "outputs": [
        {
          "internalType": "address",
          "name": "",
          "type": "address"
        }
      ],
      "stateMutability": "view",
      "type": "function",
      "constant": true
    },
    {
      "inputs": [
        {
          "internalType": "uint256",
          "name": "",
          "type": "uint256"
        }
      ],
      "name": "tenders",
      "outputs": [
        {
          "internalType": "address",
          "name": "",
          "type": "address"
        }
      ],
      "stateMutability": "view",
      "type": "function",
      "constant": true
    },
    {
      "inputs": [
        {
          "internalType": "uint256",
          "name": "_biddingOpenFor",
          "type": "uint256"
        },
        {
          "internalType": "string",
          "name": "_name",
          "type": "string"
        }
      ],
      "name": "newTender",
      "outputs": [],
      "stateMutability": "nonpayable",
      "type": "function"
    },
    {
      "inputs": [],
      "name": "getAllTenders",
      "outputs": [
        {
          "internalType": "address[]",
          "name": "",
          "type": "address[]"
        }
      ],
      "stateMutability": "view",
      "type": "function",
      "constant": true
    }
  ],
  "bytecode": "0x608060405233600160006101000a81548173ffffffffffffffffffffffffffffffffffffffff021916908373ffffffffffffffffffffffffffffffffffffffff16021790555034801561005157600080fd5b50612da1806100616000396000f3fe60806040523480156200001157600080fd5b5060043610620000525760003560e01c806307c17cb414620000575780632358c0461462000077578063465e1def1462000099578063481c6a7514620000cf575b600080fd5b6200007560048036038101906200006f9190620003c4565b620000f1565b005b6200008162000230565b604051620000909190620005b1565b60405180910390f35b620000b76004803603810190620000b1919062000398565b620002c0565b604051620000c691906200054e565b60405180910390f35b620000d962000300565b604051620000e891906200054e565b60405180910390f35b600160009054906101000a900473ffffffffffffffffffffffffffffffffffffffff1673ffffffffffffffffffffffffffffffffffffffff163373ffffffffffffffffffffffffffffffffffffffff161462000184576040517f08c379a00000000000000000000000000000000000000000000000000000000081526004016200017b90620005d5565b60405180910390fd5b600033848484604051620001989062000326565b620001a794939291906200056b565b604051809103906000f080158015620001c4573d6000803e3d6000fd5b5090506000819080600181540180825580915050600190039060005260206000200160009091909190916101000a81548173ffffffffffffffffffffffffffffffffffffffff021916908373ffffffffffffffffffffffffffffffffffffffff16021790555050505050565b60606000805480602002602001604051908101604052809291908181526020018280548015620002b657602002820191906000526020600020905b8160009054906101000a900473ffffffffffffffffffffffffffffffffffffffff1673ffffffffffffffffffffffffffffffffffffffff16815260200190600101908083116200026b575b5050505050905090565b60008181548110620002d157600080fd5b906000526020600020016000915054906101000a900473ffffffffffffffffffffffffffffffffffffffff1681565b600160009054906101000a900473ffffffffffffffffffffffffffffffffffffffff1681565b6126b280620006ba83390190565b60008083601f8401126200034757600080fd5b8235905067ffffffffffffffff8111156200036157600080fd5b6020830191508360018202830111156200037a57600080fd5b9250929050565b60008135905062000392816200069f565b92915050565b600060208284031215620003ab57600080fd5b6000620003bb8482850162000381565b91505092915050565b600080600060408486031215620003da57600080fd5b6000620003ea8682870162000381565b935050602084013567ffffffffffffffff8111156200040857600080fd5b620004168682870162000334565b92509250509250925092565b60006200043083836200043c565b60208301905092915050565b620004478162000641565b82525050565b620004588162000641565b82525050565b60006200046b8262000607565b6200047781856200061f565b93506200048483620005f7565b8060005b83811015620004bb5781516200049f888262000422565b9750620004ac8362000612565b92505060018101905062000488565b5085935050505092915050565b6000620004d6838562000630565b9350620004e58385846200067f565b620004f0836200068e565b840190509392505050565b60006200050a60158362000630565b91507f596f75277265206e6f742061206d616e616765722e00000000000000000000006000830152602082019050919050565b620005488162000675565b82525050565b60006020820190506200056560008301846200044d565b92915050565b60006060820190506200058260008301876200044d565b6200059160208301866200053d565b8181036040830152620005a6818486620004c8565b905095945050505050565b60006020820190508181036000830152620005cd81846200045e565b905092915050565b60006020820190508181036000830152620005f081620004fb565b9050919050565b6000819050602082019050919050565b600081519050919050565b6000602082019050919050565b600082825260208201905092915050565b600082825260208201905092915050565b60006200064e8262000655565b9050919050565b600073ffffffffffffffffffffffffffffffffffffffff82169050919050565b6000819050919050565b82818337600083830152505050565b6000601f19601f8301169050919050565b620006aa8162000675565b8114620006b657600080fd5b5056fe60806040523480156200001157600080fd5b50604051620026b2380380620026b28339818101604052810190620000379190620001fd565b826000806101000a81548173ffffffffffffffffffffffffffffffffffffffff021916908373ffffffffffffffffffffffffffffffffffffffff1602179055508142620000859190620002d3565b6002819055508060039080519060200190620000a3929190620000ad565b505050506200049b565b828054620000bb90620003a4565b90600052602060002090601f016020900481019282620000df57600085556200012b565b82601f10620000fa57805160ff19168380011785556200012b565b828001600101855582156200012b579182015b828111156200012a5782518255916020019190600101906200010d565b5b5090506200013a91906200013e565b5090565b5b80821115620001595760008160009055506001016200013f565b5090565b6000620001746200016e84620002a0565b6200026c565b9050828152602081018484840111156200018d57600080fd5b6200019a8482856200036e565b509392505050565b600081519050620001b38162000467565b92915050565b600082601f830112620001cb57600080fd5b8151620001dd8482602086016200015d565b91505092915050565b600081519050620001f78162000481565b92915050565b6000806000606084860312156200021357600080fd5b60006200022386828701620001a2565b93505060206200023686828701620001e6565b925050604084015167ffffffffffffffff8111156200025457600080fd5b6200026286828701620001b9565b9150509250925092565b6000604051905081810181811067ffffffffffffffff8211171562000296576200029562000438565b5b8060405250919050565b600067ffffffffffffffff821115620002be57620002bd62000438565b5b601f19601f8301169050602081019050919050565b6000620002e08262000364565b9150620002ed8362000364565b9250827fffffffffffffffffffffffffffffffffffffffffffffffffffffffffffffffff03821115620003255762000324620003da565b5b828201905092915050565b60006200033d8262000344565b9050919050565b600073ffffffffffffffffffffffffffffffffffffffff82169050919050565b6000819050919050565b60005b838110156200038e57808201518184015260208101905062000371565b838111156200039e576000848401525b50505050565b60006002820490506001821680620003bd57607f821691505b60208210811415620003d457620003d362000409565b5b50919050565b7f4e487b7100000000000000000000000000000000000000000000000000000000600052601160045260246000fd5b7f4e487b7100000000000000000000000000000000000000000000000000000000600052602260045260246000fd5b7f4e487b7100000000000000000000000000000000000000000000000000000000600052604160045260246000fd5b620004728162000330565b81146200047e57600080fd5b50565b6200048c8162000364565b81146200049857600080fd5b50565b61220780620004ab6000396000f3fe60806040523480156200001157600080fd5b50600436106200005e5760003560e01c8063013cf08b146200006357806357c90de5146200009b578063bfba476e14620000bb578063ccc5d7d414620000db578063cceb68f51462000100575b600080fd5b6200008160048036038101906200007b9190620007eb565b62000122565b604051620000929392919062000ba5565b60405180910390f35b620000b96004803603810190620000b3919062000817565b6200017d565b005b620000d96004803603810190620000d39190620007eb565b6200021b565b005b620000e562000399565b604051620000f7949392919062000b51565b60405180910390f35b6200010a6200048b565b60405162000119919062000be2565b60405180910390f35b600481815481106200013357600080fd5b90600052602060002090600302016000915090508060000160009054906101000a900473ffffffffffffffffffffffffffffffffffffffff16908060010154908060020154905083565b600254421115620001c5576040517f08c379a0000000000000000000000000000000000000000000000000000000008152600401620001bc9062000c8e565b60405180910390fd5b600082116200020b576040517f08c379a0000000000000000000000000000000000000000000000000000000008152600401620002029062000c06565b60405180910390fd5b62000217828262000556565b5050565b60008054906101000a900473ffffffffffffffffffffffffffffffffffffffff1673ffffffffffffffffffffffffffffffffffffffff163373ffffffffffffffffffffffffffffffffffffffff1614620002ac576040517f08c379a0000000000000000000000000000000000000000000000000000000008152600401620002a39062000c6c565b60405180910390fd5b600060048054905011620002f7576040517f08c379a0000000000000000000000000000000000000000000000000000000008152600401620002ee9062000c28565b60405180910390fd5b600073ffffffffffffffffffffffffffffffffffffffff16600160009054906101000a900473ffffffffffffffffffffffffffffffffffffffff1673ffffffffffffffffffffffffffffffffffffffff16146200038b576040517f08c379a0000000000000000000000000000000000000000000000000000000008152600401620003829062000c4a565b60405180910390fd5b620003968162000619565b50565b6000806000606060008054906101000a900473ffffffffffffffffffffffffffffffffffffffff16600160009054906101000a900473ffffffffffffffffffffffffffffffffffffffff166002546003808054620003f79062000d8d565b80601f0160208091040260200160405190810160405280929190818152602001828054620004259062000d8d565b8015620004765780601f106200044a5761010080835404028352916020019162000476565b820191906000526020600020905b8154815290600101906020018083116200045857829003601f168201915b50505050509050935093509350935090919293565b60606004805480602002602001604051908101604052809291908181526020016000905b828210156200054d57838290600052602060002090600302016040518060600160405290816000820160009054906101000a900473ffffffffffffffffffffffffffffffffffffffff1673ffffffffffffffffffffffffffffffffffffffff1673ffffffffffffffffffffffffffffffffffffffff1681526020016001820154815260200160028201548152505081526020019060010190620004af565b50505050905090565b600060405180606001604052803373ffffffffffffffffffffffffffffffffffffffff168152602001848152602001838152509050600481908060018154018082558091505060019003906000526020600020906003020160009091909190915060008201518160000160006101000a81548173ffffffffffffffffffffffffffffffffffffffff021916908373ffffffffffffffffffffffffffffffffffffffff16021790555060208201518160010155604082015181600201555050505050565b60008060009054906101000a900473ffffffffffffffffffffffffffffffffffffffff166004838154811062000678577f4e487b7100000000000000000000000000000000000000000000000000000000600052603260045260246000fd5b906000526020600020906003020160000160009054906101000a900473ffffffffffffffffffffffffffffffffffffffff1660048481548110620006e5577f4e487b7100000000000000000000000000000000000000000000000000000000600052603260045260246000fd5b9060005260206000209060030201600101546004858154811062000732577f4e487b7100000000000000000000000000000000000000000000000000000000600052603260045260246000fd5b9060005260206000209060030201600201546040516200075290620007c6565b62000761949392919062000b04565b604051809103906000f0801580156200077e573d6000803e3d6000fd5b50905080600160006101000a81548173ffffffffffffffffffffffffffffffffffffffff021916908373ffffffffffffffffffffffffffffffffffffffff1602179055505050565b6113b48062000e1e83390190565b600081359050620007e58162000e03565b92915050565b600060208284031215620007fe57600080fd5b60006200080e84828501620007d4565b91505092915050565b600080604083850312156200082b57600080fd5b60006200083b85828601620007d4565b92505060206200084e85828601620007d4565b9150509250929050565b600062000866838362000a9a565b60608301905092915050565b6200087d8162000d19565b82525050565b6200088e8162000d05565b82525050565b6200089f8162000d05565b82525050565b6000620008b28262000cc0565b620008be818562000ce3565b9350620008cb8362000cb0565b8060005b8381101562000902578151620008e6888262000858565b9750620008f38362000cd6565b925050600181019050620008cf565b5085935050505092915050565b60006200091c8262000ccb565b62000928818562000cf4565b93506200093a81856020860162000d57565b620009458162000df2565b840191505092915050565b60006200095f600c8362000cf4565b91507f496e76616c6964206269642e00000000000000000000000000000000000000006000830152602082019050919050565b6000620009a160138362000cf4565b91507f4e6f2070726f706f73616c7320666f756e642e000000000000000000000000006000830152602082019050919050565b6000620009e360188362000cf4565b91507f54656e64657220616c726561647920616c6c6f636174656400000000000000006000830152602082019050919050565b600062000a2560158362000cf4565b91507f596f75277265206e6f742061206d616e616765722e00000000000000000000006000830152602082019050919050565b600062000a67600e8362000cf4565b91507f42696464696e6720656e6465642e0000000000000000000000000000000000006000830152602082019050919050565b60608201600082015162000ab2600085018262000883565b50602082015162000ac7602085018262000ae2565b50604082015162000adc604085018262000ae2565b50505050565b62000aed8162000d4d565b82525050565b62000afe8162000d4d565b82525050565b600060808201905062000b1b600083018762000894565b62000b2a602083018662000872565b62000b39604083018562000af3565b62000b48606083018462000af3565b95945050505050565b600060808201905062000b68600083018762000894565b62000b77602083018662000894565b62000b86604083018562000af3565b818103606083015262000b9a81846200090f565b905095945050505050565b600060608201905062000bbc600083018662000894565b62000bcb602083018562000af3565b62000bda604083018462000af3565b949350505050565b6000602082019050818103600083015262000bfe8184620008a5565b905092915050565b6000602082019050818103600083015262000c218162000950565b9050919050565b6000602082019050818103600083015262000c438162000992565b9050919050565b6000602082019050818103600083015262000c6581620009d4565b9050919050565b6000602082019050818103600083015262000c878162000a16565b9050919050565b6000602082019050818103600083015262000ca98162000a58565b9050919050565b6000819050602082019050919050565b600081519050919050565b600081519050919050565b6000602082019050919050565b600082825260208201905092915050565b600082825260208201905092915050565b600062000d128262000d2d565b9050919050565b600062000d268262000d2d565b9050919050565b600073ffffffffffffffffffffffffffffffffffffffff82169050919050565b6000819050919050565b60005b8381101562000d7757808201518184015260208101905062000d5a565b8381111562000d87576000848401525b50505050565b6000600282049050600182168062000da657607f821691505b6020821081141562000dbd5762000dbc62000dc3565b5b50919050565b7f4e487b7100000000000000000000000000000000000000000000000000000000600052602260045260246000fd5b6000601f19601f8301169050919050565b62000e0e8162000d4d565b811462000e1a57600080fd5b5056fe60806040526000600660006101000a81548160ff0219169083151502179055503480156200002c57600080fd5b50604051620013b4380380620013b4833981810160405281019062000052919062000137565b836000806101000a81548173ffffffffffffffffffffffffffffffffffffffff021916908373ffffffffffffffffffffffffffffffffffffffff16021790555082600160006101000a81548173ffffffffffffffffffffffffffffffffffffffff021916908373ffffffffffffffffffffffffffffffffffffffff1602179055508160028190555081600381905550806005819055505050505062000243565b6000815190506200010381620001f5565b92915050565b6000815190506200011a816200020f565b92915050565b600081519050620001318162000229565b92915050565b600080600080608085870312156200014e57600080fd5b60006200015e87828801620000f2565b9450506020620001718782880162000109565b9350506040620001848782880162000120565b9250506060620001978782880162000120565b91505092959194509250565b6000620001b082620001cb565b9050919050565b6000620001c482620001cb565b9050919050565b600073ffffffffffffffffffffffffffffffffffffffff82169050919050565b6000819050919050565b6200020081620001a3565b81146200020c57600080fd5b50565b6200021a81620001b7565b81146200022657600080fd5b50565b6200023481620001eb565b81146200024057600080fd5b50565b61116180620002536000396000f3fe60806040526004361061004a5760003560e01c80637386438a1461004f578063845ddcb214610078578063952e2a91146100b7578063bf82fa90146100e2578063ccc5d7d4146100fe575b600080fd5b34801561005b57600080fd5b506100766004803603810190610071919061099d565b61012f565b005b34801561008457600080fd5b5061009f600480360381019061009a91906109f5565b6102da565b6040516100ae93929190610dc5565b60405180910390f35b3480156100c357600080fd5b506100cc6103a9565b6040516100d99190610da3565b60405180910390f35b6100fc60048036038101906100f791906109f5565b6104bf565b005b34801561010a57600080fd5b506101136106d7565b6040516101269796959493929190610d34565b60405180910390f35b80600160009054906101000a900473ffffffffffffffffffffffffffffffffffffffff1673ffffffffffffffffffffffffffffffffffffffff163373ffffffffffffffffffffffffffffffffffffffff16146101c0576040517f08c379a00000000000000000000000000000000000000000000000000000000081526004016101b790610e83565b60405180910390fd5b600060055411610205576040517f08c379a00000000000000000000000000000000000000000000000000000000081526004016101fc90610e43565b60405180910390fd5b600660009054906101000a900460ff1615610255576040517f08c379a000000000000000000000000000000000000000000000000000000000815260040161024c90610ea3565b60405180910390fd5b60035481111561029a576040517f08c379a000000000000000000000000000000000000000000000000000000000815260040161029190610e03565b60405180910390fd5b81600360008282546102ac9190610f9a565b925050819055506005600081546102c290611049565b919050819055506102d484848461075a565b50505050565b600781815481106102ea57600080fd5b906000526020600020906003020160009150905080600001805461030d90611073565b80601f016020809104026020016040519081016040528092919081815260200182805461033990611073565b80156103865780601f1061035b57610100808354040283529160200191610386565b820191906000526020600020905b81548152906001019060200180831161036957829003601f168201915b5050505050908060010154908060020160009054906101000a900460ff16905083565b60606007805480602002602001604051908101604052809291908181526020016000905b828210156104b6578382906000526020600020906003020160405180606001604052908160008201805461040090611073565b80601f016020809104026020016040519081016040528092919081815260200182805461042c90611073565b80156104795780601f1061044e57610100808354040283529160200191610479565b820191906000526020600020905b81548152906001019060200180831161045c57829003601f168201915b50505050508152602001600182015481526020016002820160009054906101000a900460ff161515151581525050815260200190600101906103cd565b50505050905090565b60008054906101000a900473ffffffffffffffffffffffffffffffffffffffff1673ffffffffffffffffffffffffffffffffffffffff163373ffffffffffffffffffffffffffffffffffffffff161461054d576040517f08c379a000000000000000000000000000000000000000000000000000000000815260040161054490610e63565b60405180910390fd5b60078181548110610587577f4e487b7100000000000000000000000000000000000000000000000000000000600052603260045260246000fd5b906000526020600020906003020160020160009054906101000a900460ff16156105e6576040517f08c379a00000000000000000000000000000000000000000000000000000000081526004016105dd90610e23565b60405180910390fd5b600160078281548110610622577f4e487b7100000000000000000000000000000000000000000000000000000000600052603260045260246000fd5b906000526020600020906003020160020160006101000a81548160ff021916908315150217905550346004600082825461065c9190610f44565b9250508190555061066b61083b565b600160009054906101000a900473ffffffffffffffffffffffffffffffffffffffff1673ffffffffffffffffffffffffffffffffffffffff166108fc349081150290604051600060405180830381858888f193505050501580156106d3573d6000803e3d6000fd5b5050565b60008060008060008060008060009054906101000a900473ffffffffffffffffffffffffffffffffffffffff16600160009054906101000a900473ffffffffffffffffffffffffffffffffffffffff16600254600354600454600554600660009054906101000a900460ff16965096509650965096509650965090919293949596565b6000604051806060016040528085858080601f016020809104026020016040519081016040528093929190818152602001838380828437600081840152601f19601f8201169050808301925050505050505081526020018381526020016000151581525090506007819080600181540180825580915050600190039060005260206000209060030201600090919091909150600082015181600001908051906020019061080892919061089b565b506020820151816001015560408201518160020160006101000a81548160ff021916908315150217905550505050505050565b60025460045410610899576001600660006101000a81548160ff0219169083151502179055507fa6a28ecaf31489fb7e6b0bd68865f10994dff8f80b59991d73f483d4684e935e426040516108909190610ec3565b60405180910390a15b565b8280546108a790611073565b90600052602060002090601f0160209004810192826108c95760008555610910565b82601f106108e257805160ff1916838001178555610910565b82800160010185558215610910579182015b8281111561090f5782518255916020019190600101906108f4565b5b50905061091d9190610921565b5090565b5b8082111561093a576000816000905550600101610922565b5090565b60008083601f84011261095057600080fd5b8235905067ffffffffffffffff81111561096957600080fd5b60208301915083600182028301111561098157600080fd5b9250929050565b60008135905061099781611114565b92915050565b6000806000604084860312156109b257600080fd5b600084013567ffffffffffffffff8111156109cc57600080fd5b6109d88682870161093e565b935093505060206109eb86828701610988565b9150509250925092565b600060208284031215610a0757600080fd5b6000610a1584828501610988565b91505092915050565b6000610a2a8383610cc6565b905092915050565b610a3b81610fce565b82525050565b6000610a4c82610eee565b610a568185610f11565b935083602082028501610a6885610ede565b8060005b85811015610aa45784840389528151610a858582610a1e565b9450610a9083610f04565b925060208a01995050600181019050610a6c565b50829750879550505050505092915050565b610abf81610fe0565b82525050565b610ace81610fe0565b82525050565b6000610adf82610ef9565b610ae98185610f22565b9350610af9818560208601611016565b610b0281611103565b840191505092915050565b6000610b1882610ef9565b610b228185610f33565b9350610b32818560208601611016565b610b3b81611103565b840191505092915050565b6000610b53600f83610f33565b91507f496e76616c696420616d6f756e742e00000000000000000000000000000000006000830152602082019050919050565b6000610b93601683610f33565b91507f537461676520616c7265616479206772616e7465642e000000000000000000006000830152602082019050919050565b6000610bd3601683610f33565b91507f5374616765207265717565737420646973616c6c6f77000000000000000000006000830152602082019050919050565b6000610c13601583610f33565b91507f596f75277265206e6f742061206d616e616765722e00000000000000000000006000830152602082019050919050565b6000610c53601183610f33565b91507f5265717565737420646973616c6c6f772e0000000000000000000000000000006000830152602082019050919050565b6000610c93601183610f33565b91507f54656e64657220636f6d706c657465642e0000000000000000000000000000006000830152602082019050919050565b60006060830160008301518482036000860152610ce38282610ad4565b9150506020830151610cf86020860182610d16565b506040830151610d0b6040860182610ab6565b508091505092915050565b610d1f8161100c565b82525050565b610d2e8161100c565b82525050565b600060e082019050610d49600083018a610a32565b610d566020830189610a32565b610d636040830188610d25565b610d706060830187610d25565b610d7d6080830186610d25565b610d8a60a0830185610d25565b610d9760c0830184610ac5565b98975050505050505050565b60006020820190508181036000830152610dbd8184610a41565b905092915050565b60006060820190508181036000830152610ddf8186610b0d565b9050610dee6020830185610d25565b610dfb6040830184610ac5565b949350505050565b60006020820190508181036000830152610e1c81610b46565b9050919050565b60006020820190508181036000830152610e3c81610b86565b9050919050565b60006020820190508181036000830152610e5c81610bc6565b9050919050565b60006020820190508181036000830152610e7c81610c06565b9050919050565b60006020820190508181036000830152610e9c81610c46565b9050919050565b60006020820190508181036000830152610ebc81610c86565b9050919050565b6000602082019050610ed86000830184610d25565b92915050565b6000819050602082019050919050565b600081519050919050565b600081519050919050565b6000602082019050919050565b600082825260208201905092915050565b600082825260208201905092915050565b600082825260208201905092915050565b6000610f4f8261100c565b9150610f5a8361100c565b9250827fffffffffffffffffffffffffffffffffffffffffffffffffffffffffffffffff03821115610f8f57610f8e6110a5565b5b828201905092915050565b6000610fa58261100c565b9150610fb08361100c565b925082821015610fc357610fc26110a5565b5b828203905092915050565b6000610fd982610fec565b9050919050565b60008115159050919050565b600073ffffffffffffffffffffffffffffffffffffffff82169050919050565b6000819050919050565b60005b83811015611034578082015181840152602081019050611019565b83811115611043576000848401525b50505050565b60006110548261100c565b91506000821415611068576110676110a5565b5b600182039050919050565b6000600282049050600182168061108b57607f821691505b6020821081141561109f5761109e6110d4565b5b50919050565b7f4e487b7100000000000000000000000000000000000000000000000000000000600052601160045260246000fd5b7f4e487b7100000000000000000000000000000000000000000000000000000000600052602260045260246000fd5b6000601f19601f8301169050919050565b61111d8161100c565b811461112857600080fd5b5056fea2646970667358221220cc2b3aff1552d54bf32a928a609e6690259431f18526f6ef8fadda106be947f664736f6c63430008000033a26469706673582212200bb39eea66e25321de7b3ff8f7045284e66c4722960a9b09990bcaecbfb53d2064736f6c63430008000033a26469706673582212204048673ee7537f8aad2d31620d5b079ed54e604fecf5bc103844ec4722d198c964736f6c63430008000033",
  "immutableReferences": {},
  "source": "// SPDX-License-Identifier: GPL-3.0\r\npragma solidity >=0.7.0 <0.9.0;\r\n\r\nimport './Tender.sol';\r\n\r\ncontract TenderFactory {\r\n    address[] public tenders;\r\n    address public manager = msg.sender;\r\n\r\n    function newTender(uint _biddingOpenFor, string calldata _name) external {\r\n        require(msg.sender == manager, \"You're not a manager.\");\r\n\r\n        Tender tender = new Tender(msg.sender, _biddingOpenFor, _name);\r\n        tenders.push(address(tender));\r\n    }\r\n\r\n    function getAllTenders() public view returns(address[] memory) {\r\n        return tenders;\r\n    }\r\n}",
  "sourcePath": "F:/proto/tender-system/contracts/TenderFactory.sol",
  "compiler": {
    "name": "solc",
    "version": "0.8.0+commit.c7dfd78e.Emscripten.clang"
  },
  "schemaVersion": "3.4.1",
  "updatedAt": "2022-06-16T12:59:40.105Z",
  "networkType": "ethereum",
  "devdoc": {
    "kind": "dev",
    "methods": {},
    "version": 1
  },
  "userdoc": {
    "kind": "user",
    "methods": {},
    "version": 1
  }
}