{
  "contractName": "TenderPassed",
  "abi": [
    {
      "inputs": [
        {
          "internalType": "address",
          "name": "_manager",
          "type": "address"
        },
        {
          "internalType": "address payable",
          "name": "_projectDeveloper",
          "type": "address"
        },
        {
          "internalType": "uint256",
          "name": "_projectCost",
          "type": "uint256"
        },
        {
          "internalType": "uint256",
          "name": "_stagesRemaining",
          "type": "uint256"
        }
      ],
      "stateMutability": "nonpayable",
      "type": "constructor"
    },
    {
      "anonymous": false,
      "inputs": [
        {
          "indexed": false,
          "internalType": "uint256",
          "name": "dateAndTime",
          "type": "uint256"
        }
      ],
      "name": "TenderCompleted",
      "type": "event"
    },
    {
      "inputs": [
        {
          "internalType": "uint256",
          "name": "",
          "type": "uint256"
        }
      ],
      "name": "stages",
      "outputs": [
        {
          "internalType": "string",
          "name": "stageName",
          "type": "string"
        },
        {
          "internalType": "uint256",
          "name": "amount",
          "type": "uint256"
        },
        {
          "internalType": "bool",
          "name": "completed",
          "type": "bool"
        }
      ],
      "stateMutability": "view",
      "type": "function"
    },
    {
      "inputs": [
        {
          "internalType": "string",
          "name": "_stageName",
          "type": "string"
        },
        {
          "internalType": "uint256",
          "name": "_amount",
          "type": "uint256"
        }
      ],
      "name": "raiseStageRequest",
      "outputs": [],
      "stateMutability": "nonpayable",
      "type": "function"
    },
    {
      "inputs": [
        {
          "internalType": "uint256",
          "name": "index",
          "type": "uint256"
        }
      ],
      "name": "grantStageRequest",
      "outputs": [],
      "stateMutability": "payable",
      "type": "function"
    },
    {
      "inputs": [],
      "name": "getAllDetails",
      "outputs": [
        {
          "internalType": "address",
          "name": "",
          "type": "address"
        },
        {
          "internalType": "address",
          "name": "",
          "type": "address"
        },
        {
          "internalType": "uint256",
          "name": "",
          "type": "uint256"
        },
        {
          "internalType": "uint256",
          "name": "",
          "type": "uint256"
        },
        {
          "internalType": "uint256",
          "name": "",
          "type": "uint256"
        },
        {
          "internalType": "uint256",
          "name": "",
          "type": "uint256"
        },
        {
          "internalType": "bool",
          "name": "",
          "type": "bool"
        }
      ],
      "stateMutability": "view",
      "type": "function"
    },
    {
      "inputs": [],
      "name": "getAllStages",
      "outputs": [
        {
          "components": [
            {
              "internalType": "string",
              "name": "stageName",
              "type": "string"
            },
            {
              "internalType": "uint256",
              "name": "amount",
              "type": "uint256"
            },
            {
              "internalType": "bool",
              "name": "completed",
              "type": "bool"
            }
          ],
          "internalType": "struct TenderPassed.Stage[]",
          "name": "",
          "type": "tuple[]"
        }
      ],
      "stateMutability": "view",
      "type": "function"
    }
  ],
  "bytecode": "0x60806040526000600660006101000a81548160ff0219169083151502179055503480156200002c57600080fd5b50604051620013b4380380620013b4833981810160405281019062000052919062000137565b836000806101000a81548173ffffffffffffffffffffffffffffffffffffffff021916908373ffffffffffffffffffffffffffffffffffffffff16021790555082600160006101000a81548173ffffffffffffffffffffffffffffffffffffffff021916908373ffffffffffffffffffffffffffffffffffffffff1602179055508160028190555081600381905550806005819055505050505062000243565b6000815190506200010381620001f5565b92915050565b6000815190506200011a816200020f565b92915050565b600081519050620001318162000229565b92915050565b600080600080608085870312156200014e57600080fd5b60006200015e87828801620000f2565b9450506020620001718782880162000109565b9350506040620001848782880162000120565b9250506060620001978782880162000120565b91505092959194509250565b6000620001b082620001cb565b9050919050565b6000620001c482620001cb565b9050919050565b600073ffffffffffffffffffffffffffffffffffffffff82169050919050565b6000819050919050565b6200020081620001a3565b81146200020c57600080fd5b50565b6200021a81620001b7565b81146200022657600080fd5b50565b6200023481620001eb565b81146200024057600080fd5b50565b61116180620002536000396000f3fe60806040526004361061004a5760003560e01c80637386438a1461004f578063845ddcb214610078578063952e2a91146100b7578063bf82fa90146100e2578063ccc5d7d4146100fe575b600080fd5b34801561005b57600080fd5b506100766004803603810190610071919061099d565b61012f565b005b34801561008457600080fd5b5061009f600480360381019061009a91906109f5565b6102da565b6040516100ae93929190610dc5565b60405180910390f35b3480156100c357600080fd5b506100cc6103a9565b6040516100d99190610da3565b60405180910390f35b6100fc60048036038101906100f791906109f5565b6104bf565b005b34801561010a57600080fd5b506101136106d7565b6040516101269796959493929190610d34565b60405180910390f35b80600160009054906101000a900473ffffffffffffffffffffffffffffffffffffffff1673ffffffffffffffffffffffffffffffffffffffff163373ffffffffffffffffffffffffffffffffffffffff16146101c0576040517f08c379a00000000000000000000000000000000000000000000000000000000081526004016101b790610e83565b60405180910390fd5b600060055411610205576040517f08c379a00000000000000000000000000000000000000000000000000000000081526004016101fc90610e43565b60405180910390fd5b600660009054906101000a900460ff1615610255576040517f08c379a000000000000000000000000000000000000000000000000000000000815260040161024c90610ea3565b60405180910390fd5b60035481111561029a576040517f08c379a000000000000000000000000000000000000000000000000000000000815260040161029190610e03565b60405180910390fd5b81600360008282546102ac9190610f9a565b925050819055506005600081546102c290611049565b919050819055506102d484848461075a565b50505050565b600781815481106102ea57600080fd5b906000526020600020906003020160009150905080600001805461030d90611073565b80601f016020809104026020016040519081016040528092919081815260200182805461033990611073565b80156103865780601f1061035b57610100808354040283529160200191610386565b820191906000526020600020905b81548152906001019060200180831161036957829003601f168201915b5050505050908060010154908060020160009054906101000a900460ff16905083565b60606007805480602002602001604051908101604052809291908181526020016000905b828210156104b6578382906000526020600020906003020160405180606001604052908160008201805461040090611073565b80601f016020809104026020016040519081016040528092919081815260200182805461042c90611073565b80156104795780601f1061044e57610100808354040283529160200191610479565b820191906000526020600020905b81548152906001019060200180831161045c57829003601f168201915b50505050508152602001600182015481526020016002820160009054906101000a900460ff161515151581525050815260200190600101906103cd565b50505050905090565b60008054906101000a900473ffffffffffffffffffffffffffffffffffffffff1673ffffffffffffffffffffffffffffffffffffffff163373ffffffffffffffffffffffffffffffffffffffff161461054d576040517f08c379a000000000000000000000000000000000000000000000000000000000815260040161054490610e63565b60405180910390fd5b60078181548110610587577f4e487b7100000000000000000000000000000000000000000000000000000000600052603260045260246000fd5b906000526020600020906003020160020160009054906101000a900460ff16156105e6576040517f08c379a00000000000000000000000000000000000000000000000000000000081526004016105dd90610e23565b60405180910390fd5b600160078281548110610622577f4e487b7100000000000000000000000000000000000000000000000000000000600052603260045260246000fd5b906000526020600020906003020160020160006101000a81548160ff021916908315150217905550346004600082825461065c9190610f44565b9250508190555061066b61083b565b600160009054906101000a900473ffffffffffffffffffffffffffffffffffffffff1673ffffffffffffffffffffffffffffffffffffffff166108fc349081150290604051600060405180830381858888f193505050501580156106d3573d6000803e3d6000fd5b5050565b60008060008060008060008060009054906101000a900473ffffffffffffffffffffffffffffffffffffffff16600160009054906101000a900473ffffffffffffffffffffffffffffffffffffffff16600254600354600454600554600660009054906101000a900460ff16965096509650965096509650965090919293949596565b6000604051806060016040528085858080601f016020809104026020016040519081016040528093929190818152602001838380828437600081840152601f19601f8201169050808301925050505050505081526020018381526020016000151581525090506007819080600181540180825580915050600190039060005260206000209060030201600090919091909150600082015181600001908051906020019061080892919061089b565b506020820151816001015560408201518160020160006101000a81548160ff021916908315150217905550505050505050565b60025460045410610899576001600660006101000a81548160ff0219169083151502179055507fa6a28ecaf31489fb7e6b0bd68865f10994dff8f80b59991d73f483d4684e935e426040516108909190610ec3565b60405180910390a15b565b8280546108a790611073565b90600052602060002090601f0160209004810192826108c95760008555610910565b82601f106108e257805160ff1916838001178555610910565b82800160010185558215610910579182015b8281111561090f5782518255916020019190600101906108f4565b5b50905061091d9190610921565b5090565b5b8082111561093a576000816000905550600101610922565b5090565b60008083601f84011261095057600080fd5b8235905067ffffffffffffffff81111561096957600080fd5b60208301915083600182028301111561098157600080fd5b9250929050565b60008135905061099781611114565b92915050565b6000806000604084860312156109b257600080fd5b600084013567ffffffffffffffff8111156109cc57600080fd5b6109d88682870161093e565b935093505060206109eb86828701610988565b9150509250925092565b600060208284031215610a0757600080fd5b6000610a1584828501610988565b91505092915050565b6000610a2a8383610cc6565b905092915050565b610a3b81610fce565b82525050565b6000610a4c82610eee565b610a568185610f11565b935083602082028501610a6885610ede565b8060005b85811015610aa45784840389528151610a858582610a1e565b9450610a9083610f04565b925060208a01995050600181019050610a6c565b50829750879550505050505092915050565b610abf81610fe0565b82525050565b610ace81610fe0565b82525050565b6000610adf82610ef9565b610ae98185610f22565b9350610af9818560208601611016565b610b0281611103565b840191505092915050565b6000610b1882610ef9565b610b228185610f33565b9350610b32818560208601611016565b610b3b81611103565b840191505092915050565b6000610b53600f83610f33565b91507f496e76616c696420616d6f756e742e00000000000000000000000000000000006000830152602082019050919050565b6000610b93601683610f33565b91507f537461676520616c7265616479206772616e7465642e000000000000000000006000830152602082019050919050565b6000610bd3601683610f33565b91507f5374616765207265717565737420646973616c6c6f77000000000000000000006000830152602082019050919050565b6000610c13601583610f33565b91507f596f75277265206e6f742061206d616e616765722e00000000000000000000006000830152602082019050919050565b6000610c53601183610f33565b91507f5265717565737420646973616c6c6f772e0000000000000000000000000000006000830152602082019050919050565b6000610c93601183610f33565b91507f54656e64657220636f6d706c657465642e0000000000000000000000000000006000830152602082019050919050565b60006060830160008301518482036000860152610ce38282610ad4565b9150506020830151610cf86020860182610d16565b506040830151610d0b6040860182610ab6565b508091505092915050565b610d1f8161100c565b82525050565b610d2e8161100c565b82525050565b600060e082019050610d49600083018a610a32565b610d566020830189610a32565b610d636040830188610d25565b610d706060830187610d25565b610d7d6080830186610d25565b610d8a60a0830185610d25565b610d9760c0830184610ac5565b98975050505050505050565b60006020820190508181036000830152610dbd8184610a41565b905092915050565b60006060820190508181036000830152610ddf8186610b0d565b9050610dee6020830185610d25565b610dfb6040830184610ac5565b949350505050565b60006020820190508181036000830152610e1c81610b46565b9050919050565b60006020820190508181036000830152610e3c81610b86565b9050919050565b60006020820190508181036000830152610e5c81610bc6565b9050919050565b60006020820190508181036000830152610e7c81610c06565b9050919050565b60006020820190508181036000830152610e9c81610c46565b9050919050565b60006020820190508181036000830152610ebc81610c86565b9050919050565b6000602082019050610ed86000830184610d25565b92915050565b6000819050602082019050919050565b600081519050919050565b600081519050919050565b6000602082019050919050565b600082825260208201905092915050565b600082825260208201905092915050565b600082825260208201905092915050565b6000610f4f8261100c565b9150610f5a8361100c565b9250827fffffffffffffffffffffffffffffffffffffffffffffffffffffffffffffffff03821115610f8f57610f8e6110a5565b5b828201905092915050565b6000610fa58261100c565b9150610fb08361100c565b925082821015610fc357610fc26110a5565b5b828203905092915050565b6000610fd982610fec565b9050919050565b60008115159050919050565b600073ffffffffffffffffffffffffffffffffffffffff82169050919050565b6000819050919050565b60005b83811015611034578082015181840152602081019050611019565b83811115611043576000848401525b50505050565b60006110548261100c565b91506000821415611068576110676110a5565b5b600182039050919050565b6000600282049050600182168061108b57607f821691505b6020821081141561109f5761109e6110d4565b5b50919050565b7f4e487b7100000000000000000000000000000000000000000000000000000000600052601160045260246000fd5b7f4e487b7100000000000000000000000000000000000000000000000000000000600052602260045260246000fd5b6000601f19601f8301169050919050565b61111d8161100c565b811461112857600080fd5b5056fea2646970667358221220cc2b3aff1552d54bf32a928a609e6690259431f18526f6ef8fadda106be947f664736f6c63430008000033",
  "immutableReferences": {},
  "source": "// SPDX-License-Identifier: GPL-3.0\r\npragma solidity >=0.7.0 <0.9.0;\r\n\r\ncontract TenderPassed {\r\n    struct Stage {\r\n        string stageName;\r\n        uint amount;\r\n        bool completed;\r\n    }\r\n\r\n    address private manager;\r\n    address payable private projectDeveloper;\r\n    uint private projectCost;\r\n    uint private amountClaimable;\r\n    uint private amountReleased;\r\n    uint private stagesRemaining;\r\n    bool private completed = false;\r\n    Stage[] public stages;\r\n\r\n    event TenderCompleted(uint dateAndTime);\r\n\r\n    modifier checkStageRequest(uint amount) {\r\n        require(msg.sender == projectDeveloper, \"Request disallow.\");\r\n        require(stagesRemaining > 0, \"Stage request disallow\");\r\n        require(!completed, \"Tender completed.\");\r\n        require(amount <= amountClaimable, \"Invalid amount.\");\r\n        _;\r\n    }\r\n\r\n    constructor(\r\n        address _manager,\r\n        address payable _projectDeveloper,\r\n        uint _projectCost,\r\n        uint _stagesRemaining\r\n    )\r\n    {\r\n        manager = _manager;\r\n        projectDeveloper = _projectDeveloper;\r\n        projectCost = _projectCost;\r\n        amountClaimable = _projectCost; \r\n        stagesRemaining = _stagesRemaining;\r\n    }\r\n\r\n    function raiseStageRequest(string calldata _stageName, uint _amount)\r\n        external\r\n        checkStageRequest(_amount)\r\n    {\r\n        amountClaimable -= _amount;\r\n        --stagesRemaining;\r\n\r\n        newStage(_stageName, _amount);\r\n    }\r\n\r\n    function grantStageRequest(uint index) external payable {\r\n        require(msg.sender == manager, \"You're not a manager.\");\r\n        require(!stages[index].completed, \"Stage already granted.\");\r\n\r\n        stages[index].completed = true;\r\n        amountReleased += msg.value;\r\n        checkCompleted();\r\n\r\n        projectDeveloper.transfer(msg.value);\r\n    }\r\n\r\n    function getAllDetails() external view returns(address, address, uint, uint, uint, uint, bool) {\r\n        return (\r\n            manager,\r\n            projectDeveloper,\r\n            projectCost,\r\n            amountClaimable,\r\n            amountReleased,\r\n            stagesRemaining,\r\n            completed\r\n        );\r\n    }\r\n\r\n    function getAllStages() public view returns(Stage[] memory) {\r\n        return stages;\r\n    }\r\n\r\n    function newStage(string calldata _stageName, uint _amount) private {\r\n        Stage memory stage = Stage({\r\n            stageName: _stageName,\r\n            amount: _amount,\r\n            completed: false\r\n        });\r\n\r\n        stages.push(stage);\r\n    }\r\n\r\n    function checkCompleted() private {\r\n        if (amountReleased >= projectCost) {\r\n            completed = true;\r\n            emit TenderCompleted(block.timestamp);\r\n        }\r\n    }\r\n\r\n}",
  "sourcePath": "F:/proto/tender-system/contracts/TenderPassed.sol",
  "compiler": {
    "name": "solc",
    "version": "0.8.0+commit.c7dfd78e.Emscripten.clang"
  },
  "schemaVersion": "3.4.1",
  "updatedAt": "2022-06-16T12:51:42.009Z",
  "devdoc": {
    "kind": "dev",
    "methods": {},
    "version": 1
  },
  "userdoc": {
    "kind": "user",
    "methods": {},
    "version": 1
  }
}